:100000000A128A15362B0310003003180130F00055
:1000100068300A128A1168210A128A11FB007B08D3
:1000200083120313BA00BA1F162817285328031087
:10003000003003180130F0003A087F39FB007B08DC
:10004000F10068300A128A1177200A128A110030F2
:1000500083120313B8000030B90001303902F430C4
:1000600003193802031C352836283828532853280A
:100070000730FC007D30FB00FB0B3C28FC0B3C28D0
:10008000013083120313B8070318B90A0030B90707
:1000900001303902F43003193802031C502851286A
:1000A0003828532853280230FB007B08F0006830C2
:1000B0000A128A1168210A128A11FC007C08831234
:1000C0000313BA003A1F6528662876280230FB0021
:1000D0007B08F0003A08BF39FC007C08F10068306A
:1000E0000A128A1177200A128A1176280800F30072
:1000F000031000300318013083120313AA00831683
:100100000313111483281118862887288328882828
:100110007308F2007207FE398312031393009028CC
:10012000831603131419952896289028111F9928CF
:100130009A28A82811159C2811199F28A0289C28C6
:10014000A12883120313AA010314AA0DEE28EE2896
:10015000700883129300AC28831603131419B12876
:10016000B228AC28111FB528B628C4281115B82804
:100170001119BB28BC28B828BD2883120313AA0173
:100180000314AA0DEE28EE28710883129300C828E4
:10019000831603131419CD28CE28C828111FD1287F
:1001A000D228E0281115D4281119D728D828D42806
:1001B000D92883120313AA010314AA0DEE28EE28EE
:1001C0001115E2281119E528E628E228E72803108E
:1001D00000300318013083120313AA000800031033
:1001E000003003180130F600F11FF728F828012924
:1001F000F009F109F00A0319F10AF6010314F60DEA
:100200000129F31F042905290E29F209F309F20A2D
:100210000319F30A0130F4007408F6060030F70001
:100220000030F8007108700403191729182956299D
:10023000F5010314F50D282901300310F00DF10D1F
:10024000FF3E031D1D290130F4007408F50728291D
:10025000F11F2B292C291C292E292E2901300310AE
:10026000F70DF80DFF3E031D2F2971087302031DC2
:100270003B2970087202031C3E293F294729700858
:10028000F2027108031CF303F302771447290130CB
:100290000310F10CF00CFF3E031D48290130F5025C
:1002A000031D532954292E29562956297608031D42
:1002B0005A296029F709F809F70A0319F80A602989
:1002C0007808F101F1077708F001F00767290800C5
:1002D000FA00031000300318013083120313AA0040
:1002E0008316031311147429111877297829742996
:1002F00079297A08F1007107FE39831203139300FC
:100300008129831603131419862987298129111F2E
:100310008A298B299A2911158D291119902991293A
:100320008D29922983120313AA010314AA0D003008
:10033000402A402A7008831293009E2983160313D3
:100340001419A329A4299E29111FA729A829B7296F
:100350001115AA291119AD29AE29AA29AF2983128D
:100360000313AA010314AA0D0030402A402A911455
:10037000B9299118BC29BD29B929BE2903147A0DC0
:10038000831203139300C429831603131419C92974
:10039000CA29C429111FCD29CE29DD291115D0293B
:1003A0001119D329D429D029D52983120313AA01DD
:1003B0000314AA0D0030402A402A91150030F8009D
:1003C0000030F7002730F6001030F5001A2A01300F
:1003D000F1000030F2000030F3000030F40071084A
:1003E000F5027208031C720FF629F729F60273084A
:1003F000031C730FFC29FD29F7027408031C740FFA
:10040000022A032AF8027808770476047504031D8B
:100410000A2A0B2A1A2A11150D2A1119102A112A33
:100420000D2A122A83120313AA010314AA0D003005
:10043000402A402A83160313141C1F2A202AE72966
:10044000212A831203131308F1007108F90083169F
:100450000313911611162C2A111A2F2A302A2C2A2E
:100460001115322A1119352A362A322A372A031051
:1004700000300318013083120313AA007908402AC0
:1004800008000A128A1553230A128A11472A831276
:10049000031306184C2A4D2A532A0A128A113224B1
:1004A0000A128A11472A0A128A1582240A128A110C
:1004B00083120313C5004508AD000A128A15BF2335
:1004C0000A128A1183120313C5004508AC000A12F0
:1004D0008A155A240A128A1183120313C50045088B
:1004E000AB000A128A1511230A128A118312031310
:1004F000C5004508AF000A128A15E5230A128A11C1
:1005000083120313C5004508AE000A128A150C2495
:100510000A128A1183120313C5004508B4000A1297
:100520008A1533240A128A1183120313C500450861
:10053000B70083300A128A1529230A128A118312FE
:1005400003132B08C500C6014508F8004608F9004A
:1005500002300A128A1137230A128A113A300A121B
:100560008A151D230A128A1186300A128A15292338
:100570000A128A11831203132C08C500C60145080C
:10058000F8004608F90002300A128A1137230A12CD
:100590008A113A300A128A151D230A128A118930EB
:1005A0000A128A1529230A128A11831203132D08AD
:1005B000C500C6014508F8004608F90002300A12D5
:1005C0008A1137230A128A11C3300A128A15292385
:1005D0000A128A11831203132E08C500C6014508AA
:1005E000F8004608F90002300A128A1137230A126D
:1005F0008A112F300A128A151D230A128A11C63059
:100600000A128A1529230A128A1183120313340845
:10061000C500C6014508F8004608F90002300A1274
:100620008A1137230A128A112F300A128A151D23C4
:100630000A128A11C9300A128A1529230A128A114C
:10064000831203133708C500C6014508F8004608A1
:10065000F90002300A128A1137230A128A11472A36
:10066000472A472A332B332B0A128A110028831278
:100670000313C200383084002030FA000408FB0065
:100680000A30FC007A08840083130008FD00FA0A8F
:100690007B0884007D088000FB0AFC0B422B103095
:1006A000F0002730F1007908F301F3077808F20130
:1006B000F2070A128A1588260A128A117108831213
:1006C0000313C101C1077008C001C0071030F0005A
:1006D0002730F1007908F301F3077808F201F207F7
:1006E0000A128A1515250A128A117108831203133A
:1006F000BF01BF077008BE01BE07E830F00003303D
:10070000F1003F08F301F3073E08F201F2070A1275
:100710008A1515250A128A11710883120313BD0167
:10072000BD077008BC01BC07E830F0000330F100E1
:100730003F08F301F3073E08F201F2070A128A1597
:1007400088260A128A11710883120313BF01BF079A
:100750007008BE01BE076430F0000030F1003D08B3
:10076000F301F3073C08F201F2070A128A15152576
:100770000A128A11710883120313BB01BB077008A8
:10078000BA01BA076430F0000030F1003D08F3010F
:10079000F3073C08F201F2070A128A1588260A12AA
:1007A0008A11710883120313BD01BD077008BC01D3
:1007B000BC070A30F0000030F1003B08F301F307FA
:1007C0003A08F201F2070A128A1515250A128A114F
:1007D000710883120313B901B9077008B801B8078B
:1007E0000A30F0000030F1003B08F301F3073A084B
:1007F000F201F2070A128A1588260A128A11710874
:1008000083120313BB01BB077008BA01BA07063095
:100810004202031C0C2C0D2C122C0530FA007A0815
:10082000C200122CC208031D162C172C192C312CB7
:10083000312C4208FA007A07FE3E383E84008313CA
:100840000008303E0A128A151D230A128A1101304F
:1008500083120313C202C208031D2F2C302C192C43
:10086000312C0800332C83120313061C382C392C2E
:10087000332CAE2CAE2C86183E2C3F2C6D2C3230F7
:10088000F0000030F1000A128A156C230A128A1156
:10089000492C83120313861C4E2C4F2C492C502CB0
:1008A0003230F0000030F1000A128A156C230A126F
:1008B0008A111730831203132B020318602C612C4A
:1008C000662C0130C3004308AB07AE2C0310003088
:1008D00003180130AB00AE2CAE2C83300A128A15FF
:1008E00029230A128A11831203132B08C300C4019F
:1008F0004308F8004408F90002300A128A1137232D
:100900000A128A116430F0000030F1000A128A15D0
:100910006C230A128A1183300A128A1529230A12BB
:100920008A1120300A128A151D230A128A11843076
:100930000A128A1529230A128A1120300A128A15EE
:100940001D230A128A119630F0000030F1000A12BD
:100950008A156C230A128A11AE2CAE2C8312031353
:100960000618B32CB42C3B2CB52C83300A128A15F4
:1009700029230A128A11831203132B08C300C4010E
:100980004308F8004408F90002300A128A1137239C
:100990000A128A11CB2C83120313061CD02CD12CE3
:1009A000CB2CD22C3230F0000030F1000A128A1524
:1009B0006C230A128A11442D8618DF2CE02C032D9B
:1009C0003230F0000030F1000A128A156C230A124E
:1009D0008A11EA2C83120313861CEF2CF02CEA2CCC
:1009E000F12C3B302C020318F62CF72CFC2C013098
:1009F000C3004308AC07442D031000300318013036
:100A0000AC00442D442D86300A128A1529230A127F
:100A10008A11831203132C08C300C4014308F80091
:100A20004408F90002300A128A1137230A128A1187
:100A30006430F0000030F1000A128A156C230A12AB
:100A40008A1186300A128A1529230A128A11203047
:100A50000A128A151D230A128A1187300A128A1572
:100A600029230A128A1120300A128A151D230A121C
:100A70008A119630F0000030F1000A128A156C23BA
:100A80000A128A11442D442D831203130618492D8E
:100A90004A2DDC2C4B2D86300A128A1529230A1286
:100AA0008A11831203132C08C300C4014308F80001
:100AB0004408F90002300A128A1137230A128A11F7
:100AC000612D83120313061C662D672D612D682D81
:100AD0003230F0000030F1000A128A156C230A123D
:100AE0008A11DA2D8618752D762D992D3230F00069
:100AF0000030F1000A128A156C230A128A11802D27
:100B000083120313861C852D862D802D872D3B3067
:100B10002D0203188C2D8D2D922D0130C30043081A
:100B2000AD07DA2D0310003003180130AD00DA2DC7
:100B3000DA2D89300A128A1529230A128A118312A2
:100B400003132D08C300C4014308F8004408F9004A
:100B500002300A128A1137230A128A116430F00017
:100B60000030F1000A128A156C230A128A118930AA
:100B70000A128A1529230A128A1120300A128A15AC
:100B80001D230A128A118A300A128A1529230A1291
:100B90008A1120300A128A151D230A128A119630F2
:100BA000F0000030F1000A128A156C230A128A1133
:100BB000DA2DDA2D831203130618DF2DE02D722DA6
:100BC000E12D89300A128A1529230A128A1183120B
:100BD00003132D08C300C4014308F8004408F900BA
:100BE00002300A128A1137230A128A11F72D831252
:100BF0000313061CFC2DFD2DF72DFE2D3230F000C9
:100C00000030F1000A128A156C230A128A11702E24
:100C100086180B2E0C2E2F2E3230F0000030F100F3
:100C20000A128A156C230A128A11162E83120313D4
:100C3000861C1B2E1C2E162E1D2E1F302E02031856
:100C4000222E232E282E0130C3004308AE07702E1B
:100C50000310003003180130AE00702E702EC33028
:100C60000A128A1529230A128A11831203132E08E5
:100C7000C300C4014308F8004408F90002300A1216
:100C80008A1137230A128A116430F0000030F10013
:100C90000A128A156C230A128A11C3300A128A15A5
:100CA00029230A128A1120300A128A151D230A12DA
:100CB0008A11C4300A128A1529230A128A11203097
:100CC0000A128A151D230A128A119630F00000308C
:100CD000F1000A128A156C230A128A11702E702EE6
:100CE000831203130618752E762E082E772EC33026
:100CF0000A128A1529230A128A11831203132E0855
:100D0000C300C4014308F8004408F90002300A1285
:100D10008A1137230A128A118D2E83120313061C9F
:100D2000922E932E8D2E942E3230F0000030F10052
:100D30000A128A156C230A128A11042F8618A12E12
:100D4000A22EC32E3230F0000030F1000A128A15B4
:100D50006C230A128A11AC2E83120313861CB12E47
:100D6000B22EAC2EB32E0C3034020318B82EB92E8E
:100D7000BE2E0130C3004308B407042FB40103148E
:100D8000B40D042F042FC6300A128A1529230A1223
:100D90008A11831203133408C300C4014308F80006
:100DA0004408F90002300A128A1137230A128A1104
:100DB0006430F0000030F1000A128A156C230A1228
:100DC0008A11C6300A128A1529230A128A11203084
:100DD0000A128A151D230A128A11C7300A128A15AF
:100DE00029230A128A1120300A128A151D230A1299
:100DF0008A119630F0000030F1000A128A156C2337
:100E00000A128A11042F042F831203130618092FC4
:100E10000A2F9E2E0B2FC6300A128A1529230A127A
:100E20008A11831203133408C300C4014308F80075
:100E30004408F90002300A128A1137230A128A1173
:100E4000212F83120313061C262F272F212F282F33
:100E50003230F0000030F1000A128A156C230A12B9
:100E60008A119A2F8618352F362F592F3230F000DD
:100E70000030F1000A128A156C230A128A11402FE1
:100E800083120313861C452F462F402F472F153002
:100E9000370203184C2F4D2F522F0130C300430847
:100EA000B7079A2F0310003003180130B7009A2FAC
:100EB0009A2FC9300A128A1529230A128A1183121D
:100EC00003133708C300C4014308F8004408F900BD
:100ED00002300A128A1137230A128A116430F00094
:100EE0000030F1000A128A156C230A128A11C930E7
:100EF0000A128A1529230A128A1120300A128A1529
:100F00001D230A128A11CA300A128A1529230A12CD
:100F10008A1120300A128A151D230A128A1196306E
:100F2000F0000030F1000A128A156C230A128A11AF
:100F30009A2F9A2F8312031306189F2FA02F322F58
:100F4000A12FC9300A128A1529230A128A11831285
:100F500003133708C300C4014308F8004408F9002C
:100F600002300A128A1137230A128A11B72F83120C
:100F70000313061CBC2FBD2FB72FBE2F3230F0003D
:100F80000030F1000A128A156C230A128A118312AA
:100F900003132F080A128A1587230A128A11831253
:100FA00003132D080A128A1536270A128A11831292
:100FB00003132C080A128A1559250A128A11831262
:100FC00003132B080A128A15D8260A128A118312D3
:100FD00003132E080A128A15EC250A128A118312AD
:100FE000031334080A128A153A260A128A11831248
:100FF000031337080A128A15A2250A128A1108005B
:1015C200F000700883120313880008006400800191
:1015D200840A0406031900340406E82AF1010314FC
:1015E200F10D00300A128A15DE240A128A1508004B
:1015F200F0007018FD2A012B831203138616042BA8
:101602008312031386120800F0007018092B0D2BA9
:10161200831203130616102B8312031306120800FB
:101622000330FB007B08F00068300A128A1168213F
:101632000A128A151C2B0800F6007608F5007508B8
:10164200F10001300A128A15DE240A128A150800F6
:10165200F60076088038F5007508F10000300A12AD
:101662008A15DE240A128A150800831320308400AA
:1016720038300A128A15E7220A128A1583010A12E1
:101682008A11412A83160313871507160C3093001B
:101692008312031394151411941014109413141339
:1016A20094160800033083160313860088018316FC
:1016B2000317880189010A128A15AB240A128A15B6
:1016C2000A128A1543230A128A150A128A11032062
:1016D2000A128A150800752B0730F3007D30F200DC
:1016E200F20B712BF30B712B0130F0020030031C53
:1016F200F103F102FF307106031D812BFF307006EA
:10170200031D842B852B6D2B862B0800F600760893
:10171200031D8C2BA12B083076020318912B922BE0
:10172200A12B0330F4007408F0007608F500750868
:10173200F10068300A128A1177200A128A15A12B49
:101742000800F3000310003003180130F200A92B47
:10175200731CAC2BAD2BB22B7008F1007108F20791
:10176200B22B0310F00D0310F30CF308031DBA2B78
:10177200BB2BA92BBC2B7208BE2B0800F001031453
:10178200F00D68300A128A1168210A128A15FB00CC
:101792007B0883120313B8000F303805FB000A30B0
:1017A200FC007C08F0003808FD0004300310FD0C3A
:1017B200FF3E031DD72B7D080A128A15A2230A12A7
:1017C2008A157B07E42B08000430FB007B08F0003D
:1017D20068300A128A1168210A128A15FC007C08F4
:1017E20083120313B8000F303805FB000A30FC00E7
:1017F2007C08F0003808FD0004300310FD0CFF3EA9
:10180200031DFE2B7D080A128A15A2230A128A15CD
:101812007B070B2C08000530FB007B08F0006830CA
:101822000A128A1168210A128A15FC007C088312A6
:101832000313B8000F303805FB000A30FC007C08A7
:10184200F0003808FD0004300310FD0CFF3E031DBC
:10185200252C7D080A128A15A2230A128A157B07F3
:10186200322C08000630FB007B08F00068300A12B8
:101872008A1168210A128A15FC007C08831203135C
:10188200B8000F303805FB000A30FC007C08F0007D
:101892003808FD0004300310FD0CFF3E031D4C2CE4
:1018A2007D080A128A15A2230A128A157B07592C6F
:1018B20008000230FB007B08F00068300A128A112F
:1018C20068210A128A15FC007C0883120313B800EF
:1018D2000F303805FB000A30FC007C08F0003808A5
:1018E200FD0004300310FD0CFF3E031D732C7D0828
:1018F20003390A128A15A2230A128A157B07812C40
:1019020008000310003003180130F00068300A129A
:101912008A1168210A128A15FB007B0883120313BD
:10192200B8000F303805FB000A30FC007C08F000DC
:101932003808FD0004300310FD0CFF3E031D9C2CF3
:101942007D0807390A128A15A2230A128A157B0713
:10195200AA2C080001300A128A15F9220A128A15E5
:101962006230F6006530F500F50BB52CF60BB52CA0
:10197200BA2C3830F5007508F10000300A128A15C9
:10198200DE240A128A150630F5007508F1000030CF
:101992000A128A15DE240A128A150C30F50075081F
:1019A200F10000300A128A15DE240A128A150A1280
:1019B2008A15EF220A128A150800F40074080A1226
:1019C2008A1505230A128A1571080A128A15E1225C
:1019D2000A128A1501300A128A15F9220A128A1588
:1019E2000730F3007D30F200F20BF52CF30BF52CEF
:1019F20000300A128A15F9220A128A150D30F300F4
:101A0200FB30F200F20B032DF30B032D082D0030F7
:101A12000A128A1505230A128A1500300A128A153B
:101A2200E1220A128A1508007108700403191A2D9E
:101A32001B2D512DF5010314F50D2B2D0130031033
:101A4200F00DF10DFF3E031D202D0130F40074084E
:101A5200F5072B2DF11F2E2D2F2D1F2D312D312D61
:101A620071087302031D372D70087202031C3A2D90
:101A72003B2D422D7008F2027108031CF303F3029E
:101A8200422D01300310F10CF00CFF3E031D432DDB
:101A92000130F502031D4E2D4F2D312D512D512DAB
:101AA2007308F101F1077208F001F007582D0800E0
:101AB200F9003C30790203185F2D602DA12D0A3008
:101AC200F0000030F100790883120313B800B90165
:101AD2003808F2003908F3000A128A11EF200A12BC
:101AE2008A15700883120313BA0004300310BA0D6A
:101AF200FF3E031D772D0A30F0000030F100790817
:101B0200BB00BC013B08F2003C08F3000A128A1534
:101B120096270A128A157008831203133A07BD002A
:101B22003D08F900F0010314F00D7908B8003808F7
:101B3200F10068300A128A1177200A128A15A12D43
:101B42000800F900643079020318A82DA92DEB2DA5
:101B52000A30F0000030F100790883120313B80054
:101B6200B9013808F2003908F3000A128A11EF208D
:101B72000A128A15700883120313BA000430031084
:101B8200BA0DFF3E031DC02D0A30F0000030F100F7
:101B92007908BB00BC013B08F2003C08F3000A12C2
:101BA2008A1596270A128A157008831203133A07B8
:101BB200BD003D08F9000630B8003808F000790889
:101BC200B9003908F10068300A128A1177200A1226
:101BD2008A15EB2D0800F9007908031DF12D392E25
:101BE200203079020318F62DF72D392E0A30F00035
:101BF2000030F100790883120313B800B9013808E4
:101C0200F2003908F3000A128A11EF200A128A152B
:101C1200700883120313BA0004300310BA0DFF3E9A
:101C2200031D0E2E0A30F0000030F1007908BB00CF
:101C3200BC013B08F2003C08F3000A128A15962701
:101C42000A128A157008831203133A07BD003D0871
:101C5200F9000430B8003808F0007908B9003908F2
:101C6200F10068300A128A1177200A128A15392E79
:101C72000800F9007908031D3F2E872E0D307902E6
:101C82000318442E452E872E0A30F0000030F10052
:101C9200790883120313B800B9013808F200390831
:101CA200F3000A128A11EF200A128A1570088312B1
:101CB2000313BA0004300310BA0DFF3E031D5C2E5D
:101CC2000A30F0000030F1007908BB00BC013B088B
:101CD200F2003C08F3000A128A1596270A128A15A6
:101CE2007008831203133A07BD003D08F90005305E
:101CF200B8003808F0007908B9003908F1006830F6
:101D02000A128A1177200A128A15872E08000030DB
:101D1200F5000030F600710870040319912E922E1E
:101D2200D02EF7010314F70DA22E01300310F00D8F
:101D3200F10DFF3E031D972E0130F4007408F707E2
:101D4200A22EF11FA52EA62E962EA82EA82E013069
:101D52000310F50DF60DFF3E031DA92E7108730247
:101D6200031DB52E70087202031CB82EB92EC12EA7
:101D72007008F2027108031CF303F3027514C12EFA
:101D820001300310F10CF00CFF3E031DC22E013096
:101D9200F702031DCD2ECE2EA82ED02ED02E7608E1
:101DA200F101F1077508F001F007D72E0800FC00D9
:101DB20018307C020318DE2EDF2E352F0A30F00099
:101DC2000030F1007C0883120313B800B90138080F
:101DD200F2003908F3000A128A11EF200A128A155A
:101DE200700883120313BA0004300310BA0DFF3EC9
:101DF200031DF62E0A30F0000030F1007C08BB0013
:101E0200BC013B08F2003C08F3000A128A1596272F
:101E12000A128A157008831203133A07BD003D089F
:101E2200FC000230B8003808F00068300A128A114B
:101E320068210A128A1583120313B9003908FB00BC
:101E42004030B8003808FB050230B8003808F0000E
:101E52007B087C04B9003908F10068300A128A1143
:101E620077200A128A15352F0800FC003C307C02CC
:101E720003183C2F3D2F952F0A30F0000030F1005F
:101E82007C0883120313B800B9013808F20039083C
:101E9200F3000A128A11EF200A128A1570088312BF
:101EA2000313BA0004300310BA0DFF3E031D542F72
:101EB2000A30F0000030F1007C08BB00BC013B0896
:101EC200F2003C08F3000A128A1596270A128A15B4
:101ED2007008831203133A07BD003D08FC0003108B
:101EE200003003180130F00068300A128A116821AC
:101EF2000A128A1583120313B8003808FB008030D7
:101F0200B8003808FB050310003003180130F00058
:101F12007B087C04B8003808F10068300A128A1184
:101F220077200A128A15952F080003100030031833
:101F32000130F600F31F9E2F9F2FA82FF209F309FD
:101F4200F20A0319F30AF6010314F60DA82FF11F82
:101F5200AB2FAC2FB22FF009F109F00A0319F10AE5
:101F6200B22F710870040319B72FB82FEE2FF501A5
:101F72000314F50DC82F01300310F00DF10DFF3ED3
:101F8200031DBD2F0130F4007408F507C82FF11F9F
:101F9200CB2FCC2FBC2FCE2FCE2F71087302031D57
:101FA200D42F70087202031CD72FD82FDF2F70088E
:101FB200F2027108031CF303F302DF2F0130031056
:101FC200F10CF00CFF3E031DE02F0130F502031D62
:101FD200EB2FEC2FCE2FEE2FEE2F7608031DF22FD4
:101FE200F82FF209F309F20A0319F30AF82F73081A
:0E1FF200F101F1077208F001F007FF2F08005F
:02400E00E22CA2
:00000001FF
